:08000000803102288731FD2F39
:100F2E008731A727873159010C1700320032000094
:100F3E0059010C130032003200009A2F8031022822
:100F4E004001980199019A019B019C019D01590153
:100F5E009001910140019201930194019501960136
:100F6E00970159018E018F017E01B801C301CE0197
:100F7E00D901E4017C01D001DB017E01B901C4017C
:100F8E00CF01DA01E5017C01D101DC01E7017E012F
:100F9E00BA01C501D001DB01E6017C01D201DD0100
:100FAE00E801FF307E01BB00FF30C600FF30D100EC
:100FBE00FF30DC00FF30E700FF307C01D300FF3054
:100FCE00DE00FF30E900FF307E01BC00FF30C700BD
:100FDE00FF30D200FF30DD00FF30E800FF307C0133
:100FEE00D400FF30DF00FF30EA00080040018731F7
:020FFE00972F2B
:020000040001F9
:02000E00E83FC9
:020012009F3F0E
:00000001FF
